:100000000C945B000C9481000C9481000C94810092
:100010000C9481000C9481000C9481000C9481005C
:100020000C9481000C9481000C9481000C9481004C
:100030000C9481000C9481000C9481000C9481003C
:100040000C947F010C9481000C9489040C94810021
:100050000C9481000C9481000C9481000C9481001C
:100060000C9481000C9481000E0400000007000233
:10007000010000030406000000000000000001026F
:100080000408102040800102040810200102040826
:100090001020040404040404040402020202020204
:1000A0000303030303030000232629000025282B54
:1000B000000024272A0011241FBECFEFD4E0DEBFAA
:1000C000CDBF11E0A0E0B1E0E8E4FCE002C00590A3
:1000D0000D92A630B107D9F711E0A6E0B1E001C05A
:1000E0001D92A739B107E1F710E0CAE6D0E004C0DD
:1000F0002297FE010E942006C836D107C9F70C944A
:1001000074010C94000040E855E260E070E08EE07D
:1001100091E00E9440030895CF92DF92EF92FF9208
:100120000F931F936C017B0161E00E9494020027F2
:10013000F7FC0095102FC801B7010E94BC0160E0D8
:100140008C2D0E949402C801B7010E94BC011F912E
:100150000F91FF90EF90DF90CF9008950E94A4013F
:1001600020910A0130910B0140910C0150910D0139
:10017000621B730B840B950B609306017093070150
:1001800080930801909309010E94A40160930A01E1
:1001900070930B0180930C0190930D010895609171
:1001A000060170910701809108019091090108955D
:1001B0000F931F938C0161E00E942D0260E0802F5D
:1001C0000E94940282E090E00E94DE0161E0802FB4
:1001D0000E94940285E090E00E94DE0160E0802FA2
:1001E0000E94940260E0802F0E942D0220E432E4FD
:1001F0004FE050E061E0802F0E94DF02DC01CB0184
:100200001F910F9108958EE091E00E94450320E038
:1002100030E0882311F021E030E0C90108958EE03C
:1002200091E00E944903992787FD909508958EE0FB
:1002300091E00E944C030895682F8EE091E00E94A7
:100240004F030895BC018EE091E00E94530308958E
:10025000BC018EE091E00E94FA030895AB01BC015D
:100260008EE091E00E94B1030895BC018EE091E020
:100270000E9473030895682F8EE091E00E94680346
:100280000895BC018EE091E00E9402040895AB0144
:10029000BC018EE091E00E94D4030895AB01BC0143
:1002A0008EE091E00E94910308950E94AE000E94AA
:1002B0000301892BC1F00E940F018130A1F48091CC
:1002C0000201909103010E94D8000E94280184E05D
:1002D00091E00E94220180910001909101010E9411
:1002E000D8000E9441010895CFEFD4E0DEBFCDBF1A
:1002F0000E94EB010E9483000E945501FDCF1F92D6
:100300000F920FB60F9211248F939F93AF93BF93C9
:100310008091130190911401A0911501B0911601E3
:100320000196A11DB11D8093130190931401A09318
:100330001501B0931601BF91AF919F918F910F90CE
:100340000FBE0F901F9018956091130170911401CA
:10035000809115019091160127E0660F771F881F85
:10036000991F2A95D1F72DE730E040E050E00E9438
:10037000CD05CA01B9010895AF92BF92CF92DF9225
:10038000EF92FF920F931F935B016C010E94A401F7
:100390007B018C010E94A4016E197F09800B910BD7
:1003A0006A157B058C059D05A8F31F910F91FF90A1
:1003B000EF90DF90CF90BF90AF900895019751F0EC
:1003C000880F991F880F991F02972FB7F8940197EC
:1003D000F1F72FBF08957894109213011092140131
:1003E000109215011092160184B5826084BD84B507
:1003F000816084BD85B5826085BD85B5816085BD20
:10040000EEE6F0E0808181608083E1E8F0E08081C9
:1004100082608083808181608083E0E8F0E0808179
:1004200081608083E1EBF0E0808184608083E0EB99
:10043000F0E0808181608083EAE7F0E08081846081
:1004400080838081826080838081816080838081DD
:10045000806880831092C1000895282F3327C90136
:1004600082589F4FFC0194912E563F4FF901849181
:10047000882381F0E82FFF27E055FF4FE491FF2705
:10048000662329F480819095892380830895808153
:10049000892B80830895482F5527CA0186599F4F7D
:1004A000FC012491CA0182589F4FFC0194914E5641
:1004B0005F4FFA0134913323A1F1222331F123302C
:1004C00021F4809180008F7705C0243031F4809131
:1004D00080008F7D8093800018C0213019F484B58E
:1004E0008F7704C0223021F484B58F7D84BD0DC088
:1004F000263021F48091B0008F7705C0273029F491
:100500008091B0008F7D8093B000E32FFF27EA55E4
:10051000FF4FE491FF278081892319F081E090E06B
:10052000089580E090E00895482F5527CA01865924
:100530009F4FFC012491CA0182589F4FFC01949166
:100540004E565F4FFA0134913323C1F1222331F12A
:10055000233021F4809180008F7705C0243031F45E
:10056000809180008F7D8093800018C0213019F425
:1005700084B58F7704C0223021F484B58F7D84BD8B
:100580000DC0263021F48091B0008F7705C0273050
:1005900029F48091B0008F7D8093B000E32FFF2776
:1005A000E555FF4FE491FF27662329F4808190955C
:1005B0008923808308958081892B80830895EF9219
:1005C000FF920F931F93A82FBB27CD0182589F4FF7
:1005D000FC017491AE56BF4FFD018491662339F042
:1005E000972F06C060E070E080E090E042C090E0AD
:1005F0005F70EE24FF248701E82FFF27EA55FF4FA5
:100600008491A82FBB272F5F3F4F4F4F5F4F0AC0EA
:100610000894E11CF11C011D111DE216F3060407EC
:10062000150701F38C918723891791F720E030E0BB
:1006300040E050E08491E82FFF2704C02F5F3F4F38
:100640004F4F5F4F808187238917C1F3CA01B901DA
:100650002AE030E040E050E00E949B05605F7F4F61
:100660008F4F9F4F24E096958795779567952A95AC
:10067000D1F71F910F91FF90EF900895089508957D
:10068000CB01BA010E940F0408950E9450049927DB
:1006900008950E94610408950E9480040895862FA1
:1006A0000E94C7040895CB010E94CE040895862FAE
:1006B0000E94C70408950F931F938C016DE00E9460
:1006C0004F036AE0C8010E944F031F910F910895E4
:1006D0000F931F938C010E944F03C8010E945B037C
:1006E0001F910F9108950F931F938C010E94530344
:1006F000C8010E945B031F910F9108950F931F93F0
:100700008C010E945703C8010E945B031F910F9147
:100710000895CB01BA013327442755270E94DB04F3
:1007200008952AE00E94890308950F931F938C0176
:100730000E949103C8010E945B031F910F910895CD
:10074000AB01662777270E94910308950F931F93AB
:100750008C010E94A003C8010E945B031F910F91AE
:100760000895EF92FF920F931F93CF93DF93EC01C5
:100770007A018B0177FF0BC06DE20E944F03109549
:100780000095F094E094E11CF11C011D111D2AE07C
:10079000B801A701CE010E948903DF91CF911F917B
:1007A0000F91FF90EF9008950F931F938C010E947B
:1007B000B103C8010E945B031F910F910895211599
:1007C000310521F4642F0E944F0308952A3031052A
:1007D00019F40E94B10308950E94890308950F93AC
:1007E0001F938C010E94DF03C8010E945B031F91CD
:1007F0000F910895AB01662757FD6095762F0E94F3
:10080000B10308950F931F938C010E94FA03C8014E
:100810000E945B031F910F91089508950895EF9230
:10082000FF920F931F937B018C0122E030E040E0A8
:1008300050E00E94EF05205C3D4B404F5F4FCA01E6
:10084000B901A80197010E94EF05215030404040B6
:100850005040BB2757FDBA95A52F942F832F2F5FAC
:100860003F4F4F4F5F4F8093C50021502093C400EE
:10087000E1ECF0E08081806180838081886080830A
:100880008081806880831F910F91FF90EF90089581
:10089000982F8091C00085FFFCCF9093C6000895EB
:1008A000809111019091120120910F01309110015E
:1008B000821B930B80589F4F60E870E00E94BA053E
:1008C000089540910F015091100180911101909174
:1008D00012018417950719F48FEF9FEF0895FA011D
:1008E000E95EFE4F2081CA01019660E870E00E9437
:1008F000BA059093100180930F01822F99270895D4
:1009000080910F0190911001909312018093110139
:1009100008951F920F920FB60F9211242F933F93B9
:100920004F935F936F937F938F939F93AF93BF93F7
:10093000EF93FF934091C600E0911101F0911201F5
:10094000CF01019660E870E00E94BA059C01809199
:100950000F01909110012817390739F0E95EFE4F19
:1009600040833093120120931101FF91EF91BF91C9
:10097000AF919F918F917F916F915F914F913F9137
:100980002F910F900FBE0F901F90189508950E9401
:10099000480408958AE00E94C7040895CF93DF9326
:1009A000EC0103C021960E94C70488818823D1F7F7
:1009B000DF91CF9108952F923F924F925F926F9265
:1009C0007F928F929F92AF92BF92CF92DF92EF92DF
:1009D000FF920F931F93CF93DF93CDB7DEB7A0970E
:1009E0000FB6F894DEBF0FBECDBF6B017C011901BD
:1009F0002A01611571058105910521F480E30E94AA
:100A0000C7044BC06624772443015E010894A11CEF
:100A1000B11C8501060D171DC701B601A201910188
:100A20000E94CD05F80160830894611C711C811C33
:100A3000911CC701B601A20191010E94CD05690177
:100A40007A01211531054105510519F77301089403
:100A5000E108F108EA0CFB1CAA24BB24650111C0C3
:100A6000F70180818A3010F4805D01C0895C0E94AA
:100A7000C7040894A108B108C108D1080894E10886
:100A8000F10888279927DC0186199709A809B9096F
:100A9000A816B906CA06DB0619F7A0960FB6F89491
:100AA000DEBF0FBECDBFDF91CF911F910F91FF90A1
:100AB000EF90DF90CF90BF90AF909F908F907F90FE
:100AC0006F905F904F903F902F900895EF92FF921C
:100AD0000F931F937B018C0197FF0BC08DE20E9447
:100AE000C70410950095F094E094E11CF11C011DE1
:100AF000111D2AE030E040E050E0C801B7010E943B
:100B0000DB041F910F91FF90EF90089520E130E0FA
:100B100040E050E00E94DB04089528E030E040E02F
:100B200050E00E94DB04089522E030E040E050E015
:100B30000E94DB040895629FD001739FF001829FA1
:100B4000E00DF11D649FE00DF11D929FF00D839F5C
:100B5000F00D749FF00D659FF00D9927729FB00DF9
:100B6000E11DF91F639FB00DE11DF91FBD01CF010C
:100B70001124089597FB092E07260AD077FD04D08B
:100B800049D006D000201AF4709561957F4F0895E2
:100B9000F6F7909581959F4F0895A1E21A2EAA1B12
:100BA000BB1BFD010DC0AA1FBB1FEE1FFF1FA2171D
:100BB000B307E407F50720F0A21BB30BE40BF50B1A
:100BC000661F771F881F991F1A9469F760957095A3
:100BD000809590959B01AC01BD01CF01089597FBD5
:100BE000092E05260ED057FD04D0D7DF0AD0001CF1
:100BF00038F450954095309521953F4F4F4F5F4FBA
:100C00000895F6F790958095709561957F4F8F4F79
:100C10009F4F0895AA1BBB1B51E107C0AA1FBB1F12
:100C2000A617B70710F0A61BB70B881F991F5A9578
:100C3000A9F780959095BC01CD010895EE0FFF1F97
:080C40000590F491E02D0994E8
:060C4800080007002C006B
:00000001FF
